:100000000C94E6000C94E0270C9403010C9403017B
:100010000C9403010C9403010C9403010C94030150
:100020000C9403010C9403010C9403010C94030140
:100030000C9403010C9403010C9403010C94030130
:100040000C9496270C9403010C9403010C94030167
:100050000C9403010C9403010C9403010C94030110
:100060000C9403010C9403010FED032196979A9BC6
:100070009D9E9FA6A7ABACADAEAFB2B3B4B5B6B7BD
:10008000B9BABBBCBDBEBFCBCDCECFD3D6D7D9DAE4
:10009000DBDCDDDEDFE5E6E7E9EAEBECEDEEEFF2F7
:1000A000F3F4F5F6F7F9FAFBFCFDFEFF00000000A3
:1000B0000000000000000000000000000000000040
:1000C0000000000000000000000000000000000030
:1000D0000000000000000000000000000000000020
:1000E0000000000000000000000000000000000010
:1000F0000000000000000000000000000000000000
:1001000000000000000000000000000000000000EF
:1001100000000000000000000000000000000000DF
:1001200000000000000000000000000000000000CF
:1001300000000000000000000000000000000000BF
:10014000000000010000020300040506000000009A
:1001500000000708000000090A0B0C0D00000E0F3C
:1001600010111213001415161718191A00000000A8
:10017000000000000000001B001C1D1E0000001FEE
:10018000000020210022232425262728000000002B
:1001900000292A2B002C2D2E2F3031320000333431
:1001A0003536373800393A3B3C3D3E3F000D0B09B0
:1001B000070503010E0C0A080604020F00020103E2
:1001C000000201030008040C0020103011241FBE9F
:1001D000CFEFD8E0DEBFCDBF11E0A0E0B1E0E8EDA9
:1001E000F0E502C005900D92AC30B107D9F718E0E8
:1001F000ACE0B1E001C01D92AE35B107E1F70E945D
:100200005B250C946A280C94000020E030E04EE559
:1002100051E0249FF001259FF00D349FF00D112433
:10022000E45EFE4F80E090E01192019661E08E3531
:100230009607D1F72F5F3F4F2530310551F78FEFEC
:100240008093160180930F01809317018093100112
:1002500080931801809311018093190180931201FA
:1002600080931A018093130108952091F40730912F
:10027000F5074CE02039340798F480E18BB990E31E
:100280004B990EC09BB98BB92F5F3F4F40E1203196
:100290003407B0F380E99CE09093F5078093F4076E
:1002A0000895982F87FD29C01BB880E28BB996FD71
:1002B0002AC01BB880E28BB995FD2BC01BB880E229
:1002C0008BB994FD2CC01BB880E28BB993FD2DC077
:1002D0001BB880E28BB992FD2EC01BB880E28BB9AF
:1002E00091FD2FC01BB880E28BB990FF30C080E138
:1002F0008BB980E38BB91BB8089580E18BB980E39B
:100300008BB996FFD6CF80E18BB980E38BB995FF8F
:10031000D5CF80E18BB980E38BB994FFD4CF80E156
:100320008BB980E38BB993FFD3CF80E18BB980E3A6
:100330008BB992FFD2CF80E18BB980E38BB991FF6B
:10034000D1CF80E18BB980E38BB990FDD0CF1BB8C2
:1003500080E28BB91BB80895DF93CF930F92CDB78E
:10036000DEB780E18BB9198289818830A1F090E0F5
:1003700030E320E13BB989B1990F8170982B2BB9FB
:1003800089818F5F898389818830A1F7892F0F90B8
:10039000CF91DF91089590E0F9CFCF93DF93EC01F7
:1003A0004115510579F020E030E0FE01E20FF31F26
:1003B000DB01A20FB31F8C9180832F5F3F4F241767
:1003C000350798F3DF91CF910895FF920F931F9314
:1003D000DF93CF930F92CDB7DEB780E18BB981E089
:1003E00090E00E94862719828981883001F110E00F
:1003F00080E3F82E00E1FBB881E090E00E948627C0
:1004000089B1110F8170182B0BB981E090E00E9427
:10041000862789818F5F89838981883061F7812F61
:100420000F90CF91DF911F910F91FF90089510E0F1
:10043000F6CF1F93182F87FD6AC01BB881E090E0AC
:100440000E94862780E28BB981E090E00E94862797
:1004500016FD6BC01BB881E090E00E94862780E209
:100460008BB981E090E00E94862715FD6CC01BB817
:1004700081E090E00E94862780E28BB981E090E0E5
:100480000E94862714FD6DC01BB881E090E00E9499
:10049000862780E28BB981E090E00E94862713FDD9
:1004A0006EC01BB881E090E00E94862780E28BB985
:1004B00081E090E00E94862712FD6FC01BB881E0AA
:1004C00090E00E94862780E28BB981E090E00E9454
:1004D000862711FD70C01BB881E090E00E9486273E
:1004E00080E28BB981E090E00E94862710FF71C006
:1004F00080E18BB981E090E00E94862780E38BB990
:1005000081E090E00E9486271BB81F91089580E14A
:100510008BB981E090E00E94862780E38BB981E06F
:1005200090E00E94862716FF95CF80E18BB981E08D
:1005300090E00E94862780E38BB981E090E00E94E2
:10054000862715FF94CF80E18BB981E090E00E946F
:10055000862780E38BB981E090E00E94862714FF14
:1005600093CF80E18BB981E090E00E94862780E301
:100570008BB981E090E00E94862713FF92CF80E143
:100580008BB981E090E00E94862780E38BB981E0FF
:1005900090E00E94862712FF91CF80E18BB981E025
:1005A00090E00E94862780E38BB981E090E00E9472
:1005B000862711FF90CF80E18BB981E090E00E9407
:1005C000862780E38BB981E090E00E94862710FDAA
:1005D0008FCF1BB881E090E00E94862780E28BB924
:1005E00081E090E00E9486271BB81F910895FF923A
:1005F0000F931F93DF93CF930F92CDB7DEB700E138
:1006000090E3F92E0BB981E090E00E9486271982D1
:100610008981883009F110E0FBB881E090E00E9408
:10062000862789B1110F8170182B0BB981E090E0FA
:100630000E94862789818F5F89838981883061F74D
:10064000812F4B990DC017FDDDCF0F90CF91DF911A
:100650001F910F91FF90089510E080E04B9BF3CF26
:100660008FEF0F90CF91DF911F910F91FF90089521
:10067000AF92BF92CF92DF92FF920F931F93F82E0B
:100680005A016B0100E10BB981E090E00E948627DE
:1006900010E31BB981E090E00E9486270BB981E04E
:1006A00090E00E9486271BB981E090E00E94862797
:1006B0000BB981E090E00E9486271BB981E090E0B1
:1006C0000E9486270BB981E090E00E9486271BB923
:1006D00081E090E00E9486270BB981E090E00E94C3
:1006E00086271BB981E090E00E9486270BB981E044
:1006F00090E00E9486271BB981E090E00E94862747
:100700000BB981E090E00E9486271BB981E090E060
:100710000E9486270BB981E090E00E9486271BB9D2
:1007200081E090E00E9486271BB880E4F80EF7FC79
:10073000CDC21BB881E090E00E94862780E28BB991
:1007400081E090E00E948627F6FCCCC21BB881E0D5
:1007500090E00E94862780E28BB981E090E00E94C1
:100760008627F5FCCDC21BB881E090E00E94862769
:1007700080E28BB981E090E00E948627F4FCCEC233
:100780001BB881E090E00E94862780E28BB981E06F
:1007900090E00E948627F3FCCFC21BB881E090E076
:1007A0000E94862780E28BB981E090E00E94862734
:1007B000F2FCD0C21BB881E090E00E94862780E264
:1007C0008BB981E090E00E948627F1FCD1C21BB872
:1007D00081E090E00E94862780E28BB981E090E082
:1007E0000E948627F0FED2C280E18BB981E090E0C2
:1007F0000E94862780E38BB981E090E00E948627E3
:100800001BB88D2D9927AA27BB27182F87FDD9C381
:100810001BB881E090E00E94862780E28BB981E0DE
:1008200090E00E94862716FDC3C31BB881E090E0CC
:100830000E94862780E28BB981E090E00E948627A3
:1008400015FDADC31BB881E090E00E94862780E2D1
:100850008BB981E090E00E94862714FD97C31BB8F6
:1008600081E090E00E94862780E28BB981E090E0F1
:100870000E94862713FD81C31BB881E090E00E948F
:10088000862780E28BB981E090E00E94862712FDE6
:100890006BC31BB881E090E00E94862780E28BB991
:1008A00081E090E00E94862711FD55C31BB881E0CE
:1008B00090E00E94862780E28BB981E090E00E9460
:1008C000862710FF40C380E18BB981E090E00E9451
:1008D000862780E38BB981E090E00E9486271BB8D1
:1008E000C601AA27BB27182F87FD24C31BB881E0A8
:1008F00090E00E94862780E28BB981E090E00E9420
:10090000862716FD0EC31BB881E090E00E94862763
:1009100080E28BB981E090E00E94862715FDF8C245
:100920001BB881E090E00E94862780E28BB981E0CD
:1009300090E00E94862714FDE2C21BB881E090E09F
:100940000E94862780E28BB981E090E00E94862792
:1009500013FDCCC21BB881E090E00E94862780E2A4
:100960008BB981E090E00E94862712FDB6C21BB8C9
:1009700081E090E00E94862780E28BB981E090E0E0
:100980000E94862711FDA0C21BB881E090E00E9462
:10099000862780E28BB981E090E00E94862710FFD5
:1009A0008BC280E18BB981E090E00E94862780E3D2
:1009B0008BB981E090E00E9486271BB8BB27AD2D44
:1009C0009C2D8B2D182F87FD6EC21BB881E090E007
:1009D0000E94862780E28BB981E090E00E94862702
:1009E00016FD58C21BB881E090E00E94862780E285
:1009F0008BB981E090E00E94862715FD42C21BB8AA
:100A000081E090E00E94862780E28BB981E090E04F
:100A10000E94862714FD2CC21BB881E090E00E9442
:100A2000862780E28BB981E090E00E94862713FD43
:100A300016C21BB881E090E00E94862780E28BB945
:100A400081E090E00E94862712FD00C21BB881E081
:100A500090E00E94862780E28BB981E090E00E94BE
:100A6000862711FDEAC11BB881E090E00E9486272D
:100A700080E28BB981E090E00E94862710FFD5C10B
:100A800080E18BB981E090E00E94862780E38BB9FA
:100A900081E090E00E9486271BB81A2DA7FCBCC1FC
:100AA0001BB881E090E00E94862780E28BB981E04C
:100AB00090E00E94862716FDA6C11BB881E090E059
:100AC0000E94862780E28BB981E090E00E94862711
:100AD00015FD90C11BB881E090E00E94862780E25E
:100AE0008BB981E090E00E94862714FD7AC11BB883
:100AF00081E090E00E94862780E28BB981E090E05F
:100B00000E94862713FD64C11BB881E090E00E941B
:100B1000862780E28BB981E090E00E94862712FD53
:100B20004EC11BB881E090E00E94862780E28BB91D
:100B300081E090E00E94862711FD38C11BB881E05A
:100B400090E00E94862780E28BB981E090E00E94CD
:100B5000862710FF23C180E18BB981E090E00E94DD
:100B6000862780E38BB981E090E00E9486271BB83E
:100B700010E11BB981E090E00E94862700E30BB9E9
:100B800081E090E00E9486271BB881E090E00E94FF
:100B9000862720E2F22EFBB881E090E00E948627B3
:100BA0001BB881E090E00E948627FBB881E090E0CE
:100BB0000E9486271BB981E090E00E9486270BB92E
:100BC00081E090E00E9486271BB881E090E00E94BF
:100BD0008627FBB881E090E00E9486271BB981E060
:100BE00090E00E9486270BB981E090E00E94862762
:100BF0001BB881E090E00E948627FBB881E090E07E
:100C00000E9486271BB981E090E00E9486270BB9DD
:100C100081E090E00E9486271BB81BB981E090E03C
:100C20000E9486270BB981E090E00E9486271BB9BD
:100C300081E090E00E9486270BB981E090E00E945D
:100C400086271BB981E090E00E9486270BB981E0DE
:100C500090E00E9486271BB981E090E00E948627E1
:100C60000BB981E090E00E9486271BB981E090E0FB
:100C70000E9486270BB981E090E00E9486271BB96D
:100C800081E090E00E9486270BB981E090E00E940D
:100C900086271BB981E090E00E9486270BB981E08E
:100CA00090E00E9486271BB981E090E00E94862791
:100CB0000BB981E090E00E9486271BB81F910F912D
:100CC000FF90DF90CF90BF90AF9008950BB981E077
:100CD00090E00E9486271BB981E090E00E94862761
:100CE000F6FE34CD80E18BB981E090E00E9486274A
:100CF00080E38BB981E090E00E948627F5FE33CD3A
:100D000080E18BB981E090E00E94862780E38BB977
:100D100081E090E00E948627F4FE32CD80E18BB91D
:100D200081E090E00E94862780E38BB981E090E02B
:100D30000E948627F3FE31CD80E18BB981E090E0FF
:100D40000E94862780E38BB981E090E00E9486278D
:100D5000F2FE30CD80E18BB981E090E00E948627E1
:100D600080E38BB981E090E00E948627F1FE2FCDD1
:100D700080E18BB981E090E00E94862780E38BB907
:100D800081E090E00E948627F0FC2ECD1BB881E028
:100D900090E00E94862780E28BB92ECD1BB881E0BF
:100DA00090E00E94862780E28BB9DDCE80E18BB98E
:100DB00081E090E00E94862780E38BB9C6CE80E177
:100DC0008BB981E090E00E94862780E38BB9B0CE9A
:100DD00080E18BB981E090E00E94862780E38BB9A7
:100DE0009ACE80E18BB981E090E00E94862780E373
:100DF0008BB984CE80E18BB981E090E00E94862798
:100E000080E38BB96ECE80E18BB981E090E00E94E7
:100E1000862780E38BB958CE80E18BB981E090E0E2
:100E20000E94862780E38BB942CE1BB881E090E018
:100E30000E94862780E28BB92BCE80E18BB981E0BE
:100E400090E00E94862780E38BB914CE80E18BB9B5
:100E500081E090E00E94862780E38BB9FECD80E19F
:100E60008BB981E090E00E94862780E38BB9E8CDC2
:100E700080E18BB981E090E00E94862780E38BB906
:100E8000D2CD80E18BB981E090E00E94862780E39B
:100E90008BB9BCCD80E18BB981E090E00E948627C0
:100EA00080E38BB9A6CD80E18BB981E090E00E9410
:100EB000862780E38BB990CD1BB881E090E00E943B
:100EC000862780E28BB975CD80E18BB981E090E017
:100ED0000E94862780E38BB95ECD80E18BB981E0EB
:100EE00090E00E94862780E38BB948CD80E18BB9E2
:100EF00081E090E00E94862780E38BB932CD80E1CB
:100F00008BB981E090E00E94862780E38BB91CCDED
:100F100080E18BB981E090E00E94862780E38BB965
:100F200006CD80E18BB981E090E00E94862780E3C6
:100F30008BB9F0CC80E18BB981E090E00E948627EC
:100F400080E38BB9DACC1BB881E090E00E94862761
:100F500080E28BB9C0CC80E18BB981E090E00E9447
:100F6000862780E38BB9A9CC80E18BB981E090E042
:100F70000E94862780E38BB993CC80E18BB981E016
:100F800090E00E94862780E38BB97DCC80E18BB90D
:100F900081E090E00E94862780E38BB967CC80E1F6
:100FA0008BB981E090E00E94862780E38BB951CC19
:100FB00080E18BB981E090E00E94862780E38BB9C5
:100FC0003BCC80E18BB981E090E00E94862780E3F2
:100FD0008BB925CCDF93CF930F92CDB7DEB720E14D
:100FE00030E32BB9198289818830A9F090E03BB9B0
:100FF00089B1990F8170982B2BB989818F5F898373
:1010000089818830A1F74B9902C09F3F51F70F901B
:10101000CF91DF91089590E0F6CFDF93CF930F92B9
:10102000CDB7DEB720E130E32BB919828981883052
:10103000B1F090E03BB989B1990F8170982B2BB931
:1010400089818F5F898389818830A1F7892F4B99A6
:101050000AC097FDE9CF0F90CF91DF91089590E0FE
:1010600080E04B9BF6CF8FEF0F90CF91DF910895EB
:101070002F923F924F925F926F927F928F929F92A8
:10108000AF92BF92CF92DF92EF92FF920F931F9396
:10109000DF93CF93CDB7DEB762970FB6F894DEBF7C
:1010A0000FBECDBF805C072F1127222733276B018E
:1010B000EE24FF24852E962EA72EBB2490E8282F01
:1010C00020782887282F20742A8B282F20722D879C
:1010D000282F20712E8328E0522E582214E0A12EB2
:1010E000A822B2E0EB2EE822182F1170802F807812
:1010F0008F83202F2074298B802F80728C87202F44
:1011000020712C83A8E06A2E6022F4E0BF2EB0226A
:10111000E2E0FE2EF02201708C2D80788D832C2D44
:101120002074288B8C2D80728B872C2D20712A8324
:1011300078E0772E7C2064E0D62EDC20BC2DB270C7
:10114000FC2DF170882D80788B83282D20742F87BB
:10115000882D80728A8750E1252E282038E0932E32
:10116000982024E0C22EC820A82DA270E82DE1709E
:1011700080E8382E3422242F20742E87842F80720A
:10118000898770E1472E442268E0862E8422742FDE
:101190007470642F6270417020E130E350E203C04C
:1011A0002BB93BB996959923D9F71BB88885882325
:1011B00009F0ABC11BB85BB98A89882309F0A2C1C9
:1011C0001BB85BB98D85882309F099C11BB85BB941
:1011D0008E81882309F090C11BB85BB9552009F0B6
:1011E00088C11BB85BB9AA2009F080C11BB85BB9E4
:1011F000EE2009F078C11BB85BB9112309F470C166
:101200002BB93BB91BB88F81882309F066C11BB885
:101210005BB98989882309F05DC11BB85BB98C85EE
:10122000882309F054C11BB85BB98C81882309F06D
:101230004BC11BB85BB9662009F043C11BB85BB951
:10124000BB2009F03BC11BB85BB9FF2009F033C1DB
:101250001BB85BB9002309F42BC12BB93BB91BB8F0
:101260008D81882309F021C11BB85BB98889882347
:1012700009F018C11BB85BB98B85882309F00FC131
:101280001BB85BB98A81882309F006C11BB85BB91A
:10129000772009F0FEC01BB85BB9DD2009F0F6C06D
:1012A0001BB85BB9BB2309F0EEC01BB85BB9FF23C9
:1012B00009F4E6C02BB93BB91BB88B81882309F030
:1012C000DCC01BB85BB98F85882309F0D3C01BB87D
:1012D0005BB98A85882309F0CAC01BB85BB9222094
:1012E00009F0C2C01BB85BB9992009F0BAC01BB89D
:1012F0005BB9CC2009F0B2C01BB85BB9AA2309F0D6
:10130000AAC01BB85BB9EE2309F4A2C02BB93BB944
:101310001BB8332009F099C01BB85BB98E858823B0
:1013200009F090C01BB85BB98985882309F087C094
:101330001BB85BB9442009F07FC01BB85BB988209B
:1013400009F077C01BB85BB9772309F06FC01BB8F1
:101350005BB9662309F067C01BB85BB9442309F485
:101360005FC02BB93BB91BB82BB93BB91BB85BB9F4
:101370001BB85BB92BB93BB91BB85BB92BB93BB9EF
:101380001BB85BB92BB93BB91BB82BB93BB92BB90F
:101390003BB92BB93BB92BB93BB92BB93BB92BB9ED
:1013A0003BB92BB93BB92BB93BB91BB82BB9198247
:1013B00089818830C1F090E03BB989B1990F817083
:1013C000982B2BB989818F5F898389818830A1F718
:1013D000892F4B990CC097FDE9CF882341F08F3FAF
:1013E00031F090E8DDCE90E080E04B9BF4CF629648
:1013F0000FB6F894DEBF0FBECDBFCF91DF911F9126
:101400000F91FF90EF90DF90CF90BF90AF909F90A3
:101410008F907F906F905F904F903F902F900895A6
:101420001BB85BB9A0CF2BB93BB998CF2BB93BB94F
:1014300090CF2BB93BB988CF2BB93BB980CF2BB913
:101440003BB978CF2BB93BB96FCF2BB93BB966CF3E
:101450001BB85BB95DCF2BB93BB955CF2BB93BB9A5
:101460004DCF2BB93BB945CF2BB93BB93DCF2BB9AC
:101470003BB935CF2BB93BB92CCF2BB93BB923CFD7
:101480001BB85BB919CF2BB93BB911CF2BB93BB9FD
:1014900009CF2BB93BB901CF2BB93BB9F9CE2BB949
:1014A0003BB9F0CE2BB93BB9E7CE2BB93BB9DECE79
:1014B0001BB85BB9D4CE2BB93BB9CCCE2BB93BB959
:1014C000C4CE2BB93BB9BCCE2BB93BB9B4CE2BB9EA
:1014D0003BB9ABCE2BB93BB9A2CE2BB93BB999CE18
:1014E0001BB85BB98FCE2BB93BB987CE2BB93BB9B3
:1014F0007FCE2BB93BB977CE2BB93BB96FCE2BB989
:101500003BB966CE2BB93BB95DCE2BB93BB954CEB6
:10151000DF93CF930F92CDB7DEB7AB01BC0181E172
:101520000E94380820E130E32BB919828981883084
:10153000A9F090E03BB989B1990F8170982B2BB934
:1015400089818F5F898389818830A1F74B9902C097
:101550009E3F51F70F90CF91DF91089590E0F6CF25
:101560004F925F926F927F928F929F92AF92BF92B3
:10157000CF92DF92EF92FF920F931F93DF93CF935F
:101580000F92CDB7DEB76090FF0770900008809093
:101590000108909002084B9B12C00F90CF91DF91F1
:1015A0001F910F91FF90EF90DF90CF90BF90AF9081
:1015B0009F908F907F906F905F904F90089580E103
:1015C00040E052E060E070E00E9438088091F60749
:1015D0009091F707892B09F34424552410E100E387
:1015E0002CE1A22E23E0B22E92E0C92E80E2D82E6A
:1015F00081E1B401A3010E9438081BB919828981D5
:10160000883009F437C190E00BB989B1990F817026
:10161000982B1BB989818F5F898389818830A1F7D5
:101620004B9902C09E3F49F7BCE1EB2EB1E0FB2E87
:10163000F7011BB919828981883009F411C190E042
:101640000BB989B1990F8170982B1BB989818F5F74
:10165000898389818830A1F7919383E0EC31F80781
:1016600041F71BB919828981883049F00BB989B1DA
:101670001BB989818F5F898389818830B9F71BB94C
:1016800019828981883049F00BB989B11BB98981E8
:101690008F5F898389818830B9F7CBB81BB84091B7
:1016A000F6075091F70760E070E0A9E0440F551F7E
:1016B000661F771FAA95D1F7460D571D681D791D26
:1016C00088E10E9438081BB90BB91BB90BB91BB9CB
:1016D0000BB91BB90BB91BB90BB91BB90BB91BB9AA
:1016E0000BB91BB90BB91BB81BB90BB91BB90BB99B
:1016F0001BB90BB91BB90BB91BB90BB91BB90BB98A
:101700001BB90BB91BB8DBB81BB825C01BB8DBB8BD
:1017100086FD29C01BB8DBB885FD29C01BB8DBB826
:1017200084FD29C01BB8DBB883FD29C01BB8DBB81A
:1017300082FD29C01BB8DBB881FD29C01BB8DBB80E
:1017400080FF29C01BB90BB91BB80894E11CF11C20
:10175000AE14BF0449F1D7018C9187FFD7CF1BB9D5
:101760000BB986FFD7CF1BB90BB985FFD7CF1BB9F4
:101770000BB984FFD7CF1BB90BB983FFD7CF1BB9E8
:101780000BB982FFD7CF1BB90BB981FFD7CF1BB9DC
:101790000BB980FDD7CF1BB8DBB81BB80894E11C90
:1017A000F11CAE14BF04B9F61BB90BB91BB90BB9C8
:1017B0001BB90BB91BB90BB91BB90BB91BB90BB9C9
:1017C0001BB90BB91BB90BB91BB81BB90BB91BB9AA
:1017D0000BB91BB90BB91BB90BB91BB90BB91BB9A9
:1017E0000BB91BB90BB91BB90BB91BB81BB91982C3
:1017F0008981883049F00BB989B11BB989818F5F24
:10180000898389818830B9F71BB919828981883029
:1018100079F190E00BB989B1990F8170982B1BB9C0
:1018200089818F5F898389818830A1F74B9902C0B4
:101830009F3F51F7CBB81BB80894411C511C8091B5
:10184000F6079091F7074816590608F0A6CE80E0F3
:1018500092E0A0E0B0E0680E791E8A1E9B1EC8CE02
:1018600090E0919383E0EC31F80709F0E2CEF9CEF5
:1018700090E0DCCF90E0D4CE2F923F924F925F92D7
:101880007F928F929F92AF92BF92CF92DF92EF9210
:10189000FF920F931F93DF93CF93CDB7DEB72D97B2
:1018A0000FB6F894DEBF0FBECDBF998788877B87C0
:1018B0006A875D874C87AA24BB2480E092E09F83DF
:1018C0008E832224332444245524CC24DD24760121
:1018D00010E100E34B9989C280E141E050E060E013
:1018E00070E00E94380840910D0850910E086091F8
:1018F0000F08709110084C0D5D1D6E1D7F1D81E15C
:101900000E9438081BB919828981883009F467C29E
:1019100090E00BB989B1990F8170982B1BB989811F
:101920008F5F898389818830A1F74B9902C09E3FE0
:1019300049F71BB919828981883009F452C290E0B5
:101940000BB989B1990F8170982B1BB989818F5F71
:10195000898389818830A1F71BB9198289818830F0
:1019600049F00BB989B11BB989818F5F898389815E
:101970008830B9F71BB919828981883049F00BB9D1
:1019800089B11BB989818F5F898389818830B9F7D3
:10199000992309F4BFC1953009F4BCC19E3209F402
:1019A000B9C1953E09F4B6C1892F81548A3120F01E
:1019B00090539A3008F0AEC140910D0850910E0836
:1019C00060910F0870911008455F5F4F6F4F7F4F18
:1019D0004C0D5D1D6E1D7F1D81E10E9438081BB9F5
:1019E00019828981883009F4FEC190E00BB989B170
:1019F000990F8170982B1BB989818F5F89838981A9
:101A00008830A1F74B9902C09E3F49F71BB9198254
:101A10008981883009F409C290E00BB989B1990F26
:101A20008170982B1BB989818F5F89838981883068
:101A3000A1F71BB919828981883049F00BB989B1A6
:101A40001BB989818F5F898389818830B9F71BB978
:101A500019828981883049F00BB989B11BB9898114
:101A60008F5F898389818830B9F7892F8E7109F05A
:101A700051C19F3009F44EC180E144E050E060E084
:101A800070E00E94380840910D0850910E08609156
:101A90000F0870911008485F5F4F6F4F7F4F4C0DDC
:101AA0005D1D6E1D7F1D81E10E9438081BB91982E2
:101AB0008981883009F4BBC190E00BB989B1990FD5
:101AC0008170982B1BB989818F5F898389818830C8
:101AD000A1F74B9902C09E3F49F71BB91982898132
:101AE000883009F4B0C177240BB989B1770C8170C3
:101AF000782A1BB989818F5F898389818830A1F712
:101B00001BB919828981883009F497C188240BB9DF
:101B100089B1880C8170882A1BB989818F5F89837C
:101B200089818830A1F71BB919828981883009F42D
:101B300086C199240BB989B1990C8170982A1BB977
:101B400089818F5F898389818830A1F7AA85BB85C8
:101B5000AB2B09F465C11BB919828981883009F45E
:101B600070C190E00BB989B1990F8170982B1BB9A6
:101B700089818F5F898389818830A1F7892F81705E
:101B8000880F880F880FEA85FB8580831BB919822F
:101B90008981883049F00BB989B11BB989818F5F80
:101BA000898389818830B9F71BB919828981883086
:101BB00049F00BB989B11BB989818F5F898389810C
:101BC0008830B9F780E144E050E060E070E00E94C6
:101BD000380840910D0850910E0860910F087091DF
:101BE00010084A5E5F4F6F4F7F4F4C0D5D1D6E1D9D
:101BF0007F1D81E10E9438081BB9198289818830D4
:101C000009F411C190E00BB989B1990F8170982B3B
:101C10001BB989818F5F898389818830A1F74B99AE
:101C200002C09E3F49F71BB919828981883009F4A7
:101C300002C190E00BB989B1990F8170982B1BB943
:101C400089818F5F898389818830A1F79A831BB945
:101C500019828981883009F415C190E00BB989B1E6
:101C6000990F8170982B1BB989818F5F8983898136
:101C70008830A1F79B831BB919828981883009F4C8
:101C8000FFC090E00BB989B1990F8170982B1BB9F7
:101C900089818F5F898389818830A1F79C831BB9F3
:101CA00019828981883009F4E9C090E00BB989B1C3
:101CB000990F8170982B1BB989818F5F89838981E6
:101CC0008830A1F79D831BB919828981883049F03A
:101CD0000BB989B11BB989818F5F8983898188306C
:101CE000B9F71BB919828981883049F00BB989B1DC
:101CF0001BB989818F5F898389818830B9F7A8856D
:101D0000B9858C91871531F411968C9111978815AE
:101D100009F49BC00894A11CB11C80E290E0A0E0F3
:101D2000B0E0C80ED91EEA1EFB1E90E0A91692E094
:101D3000B90609F0CFCDAE81BF81A050B24009F401
:101D40004BC08C859D85892B09F446C080E148E015
:101D500050E060E070E00E9438086E817F81660F7D
:101D6000771F62957295707F7627607F762780E077
:101D700090E020910D0830910E0840910F0850918D
:101D80001008620F731F841F951F0E94880A20E0AD
:101D900030E040E150E34BB919828981883009F481
:101DA00048C090E05BB989B1990F8170982B4BB90D
:101DB00089818F5F898389818830A1F7EC85FD85D2
:101DC000E20FF31F90832F5F3F4F2830310519F743
:101DD0000E94AC010E94AC016E817F8108C090E03E
:101DE000A4CD90E0B9CD90E00DCE60E072E0CB01E3
:101DF0002D960FB6F894DEBF0FBECDBFCF91DF9109
:101E00001F910F91FF90EF90DF90CF90BF90AF9018
:101E10009F908F907F905F904F903F902F9008956C
:101E20000E94AC01B3CE90E0FACE90E002CE90E0FA
:101E300050CE90E0C3CF90E009CF882474CE99248F
:101E400085CE80E0A0CE77245BCE12968C9189154A
:101E500009F060CF2A813B818C819D81481659060B
:101E600040F08415950509F055CF2215330508F487
:101E700051CFBF82AE8219012C014CCF90E022CF0E
:101E800090E00CCF90E0F6CE5F926F927F928F92AF
:101E90009F92AF92BF92CF92DF92EF92FF920F93F9
:101EA0001F93DF93CF930F92CDB7DEB77C013B0139
:101EB0004A01A22E502E4B9B11C00F90CF91DF9163
:101EC0001F910F91FF90EF90DF90CF90BF90AF9058
:101ED0009F908F907F906F905F90089580E142E097
:101EE00050E060E070E00E94380840910D08509189
:101EF0000E0860910F0870911008465E5F4F6F4F9B
:101F00007F4FEE0CFF1CE294F294F0EFFF22FE24D0
:101F1000EF22FE24C701AA2797FDA095BA2F480FEC
:101F2000591F6A1F7B1F81E10E94380820E130E3BE
:101F30002BB919828981883009F41AC190E03BB924
:101F400089B1990F8170982B2BB989818F5F898313
:101F500089818830A1F74B9902C09E3F49F780E103
:101F60008BB919828981883009F407C190E020E398
:101F700030E12BB989B1990F8170982B3BB98981D8
:101F80008F5F898389818830A1F7692F70E080E1B4
:101F90008BB919828981883009F4ECC090E020E384
:101FA00030E12BB989B1990F8170982B3BB98981A8
:101FB0008F5F898389818830A1F7592F40E09A018A
:101FC000260F371F80E18BB919828981883059F03B
:101FD00040E390E14BB989B19BB989818F5F8983D7
:101FE00089818830B9F780E18BB91982898188307D
:101FF00059F040E390E14BB989B19BB989818F5F7A
:10200000898389818830B9F7AA2009F4ADC0CC242E
:10201000DD2410E100E3C814D90408F088C0089456
:10202000C11CD11CC601652D70E00E945728B62E38
:10203000A90160E070E0440F551F661F771F809173
:10204000FF0790910008A0910108B0910208480F85
:10205000591F6A1F7B1F81E10E9438081BB9198232
:102060008981883009F46BC090E00BB989B1990F70
:102070008170982B1BB989818F5F89838981883012
:10208000A1F74B9902C09E3F49F71BB9198289817C
:10209000883009F466C090E00BB989B1990F81705E
:1020A000982B1BB989818F5F898389818830A1F73B
:1020B000492F50E01BB919828981883009F44EC03C
:1020C00090E00BB989B1990F8170982B1BB9898168
:1020D0008F5F898389818830A1F7F92EEE249701DB
:1020E000240F351F1BB919828981883049F00BB93B
:1020F00089B11BB989818F5F898389818830B9F75C
:102100001BB919828981883049F00BB989B11BB993
:1021100089818F5F898389818830B9F7BA1489F002
:10212000FFEF273F3F0718F4AB1408F074CF80E1AE
:1021300040E052E060E070E00E943808BECE90E0DF
:10214000A0CFC601652D70E00E945728FC01EE0F5C
:10215000FF1FE60DF71D31832083E2CFEE24FF241D
:10216000BECF40E050E0A6CFF301318320834FCFB4
:1021700090E0F1CE40E050E022CF60E070E007CF89
:10218000AF92BF92CF92DF92EF92FF920F931F9385
:10219000DF93CF930F92CDB7DEB7182FB62EA42EB4
:1021A000309114014B99EDC3E42EFF24E294F29494
:1021B00000EFF022FE24E022FE24E60EF11C67016F
:1021C000032E02C0D694C7940A94E2F7C60163E2D4
:1021D00070E00E944328262F8091F807681709F0C5
:1021E000DCC382E08BB91BB8C60163E270E00E94D9
:1021F0004328FC01EE0FFF1FED5EF74F4081518138
:102200004250504060E070E004C0440F551F661F0C
:10221000771F3A95D2F78091030890E00197E82262
:10222000F922C701A0E0B0E0480F591F6A1F7B1FC9
:10223000A9E0440F551F661F771FAA95D1F780911B
:10224000FB079091FC07A091FD07B091FE07480F96
:10225000591F6A1F7B1F88E10E94380880E18BB9F3
:1022600090E39BB98BB99BB98BB99BB98BB99BB9DF
:102270008BB99BB98BB99BB98BB99BB98BB99BB9FE
:102280001BB88BB99BB98BB99BB98BB99BB98BB96F
:102290009BB98BB99BB98BB99BB98BB99BB91BB84F
:1022A00080E28BB91BB880E090E030E120E340E1B0
:1022B0003BB950E32BB90196803B9105C1F71BB8A0
:1022C0001BB880E28BB91BB88BB91BB88BB91BB894
:1022D0008BB91BB88BB91BB88BB94BB95BB94BB970
:1022E0005BB91BB84BB95BB94BB95BB94BB95BB9BF
:1022F0004BB95BB94BB95BB94BB95BB91BB88BB97F
:102300001BB88BB91BB84BB95BB94BB95BB94BB9AF
:102310005BB94BB95BB94BB95BB94BB95BB94BB95D
:102320005BB94BB95BB91BB81BB88BB91BB88BB980
:102330004BB95BB94BB95BB94BB95BB94BB95BB93D
:102340004BB95BB94BB95BB91BB84BB95BB94BB96E
:102350005BB91BB88BB91BB88BB94BB95BB94BB91F
:102360005BB94BB95BB94BB95BB91BB84BB95BB93E
:102370004BB95BB94BB95BB94BB95BB91BB88BB9FE
:102380001BB88BB94BB95BB94BB95BB91BB84BB92F
:102390005BB94BB95BB94BB95BB94BB95BB94BB9DD
:1023A0005BB94BB95BB91BB88BB91BB88BB91BB800
:1023B0004BB95BB94BB95BB94BB95BB94BB95BB9BD
:1023C0004BB95BB94BB95BB94BB95BB94BB95BB9AD
:1023D0001BB81BB88BB91BB88BB94BB95BB94BB9E0
:1023E0005BB94BB95BB94BB95BB94BB95BB94BB98D
:1023F0005BB91BB84BB95BB94BB95BB91BB88BB9AF
:102400001BB88BB94BB95BB94BB95BB94BB95BB96D
:102410004BB95BB91BB84BB95BB94BB95BB94BB99D
:102420005BB94BB95BB91BB88BB91BB88BB94BB94E
:102430005BB94BB95BB91BB84BB95BB94BB95BB96D
:102440004BB95BB94BB95BB94BB95BB94BB95BB92C
:102450001BB88BB91BB88BB91BB84BB95BB94BB95F
:102460005BB91BB88BB94BB95BB91BB88BB94BB90E
:102470005BB91BB88BB94BB95BB91BB84BB95BB92E
:102480001BB88BB94BB95BB91BB88BB94BB95BB9EE
:102490001BB88BB94BB95BB91BB88BB91BB84BB91F
:1024A0005BB91BB88BB91BB88BB94BB95BB91BB8FF
:1024B0008BB94BB95BB94BB95BB91BB88BB91BB8BE
:1024C0004BB95BB94BB95BB94BB95BB94BB95BB9AC
:1024D0004BB95BB94BB95BB94BB95BB94BB95BB99C
:1024E0001BB84BB95BB94BB95BB94BB95BB94BB9CD
:1024F0005BB94BB95BB94BB95BB94BB95BB91BB8AD
:102500008BB91BB89A2D96959A6A4BB95BB996FD13
:102510005CC21BB88BB920E12BB980E38BB994FD69
:102520008AC21BB880E28BB920E12BB980E38BB95A
:1025300092FD7EC21BB880E28BB920E12BB980E30B
:102540008BB990FD72C21BB880E28BB91BB89A2D73
:102550009A6A20E12BB980E38BB996FD71C21BB852
:1025600080E28BB920E12BB980E38BB994FD5AC28C
:102570001BB880E28BB920E12BB980E38BB992FDC7
:102580004EC21BB880E28BB920E12BB980E38BB936
:1025900090FD42C21BB880E28BB91BB89B2D96956B
:1025A0009A6A20E12BB980E38BB996FD55C21BB81E
:1025B00080E28BB920E12BB980E38BB994FD29C26D
:1025C0001BB880E28BB920E12BB980E38BB992FD77
:1025D0001DC21BB880E28BB920E12BB980E38BB917
:1025E00090FD11C21BB880E28BB91BB89B2D9A6A73
:1025F00020E12BB980E38BB996FD2BC21BB880E29A
:102600008BB920E12BB980E38BB994FDF9C11BB8DC
:1026100080E28BB920E12BB980E38BB992FDEDC14B
:102620001BB880E28BB920E12BB980E38BB990FD18
:10263000E1C11BB880E28BB91BB82EEF2B252A25F0
:10264000922F96959A6A30E13BB980E38BB996FD5B
:10265000FDC11BB880E28BB930E13BB980E38BB997
:1026600094FDC5C11BB880E28BB930E13BB980E372
:102670008BB992FDB9C11BB880E28BB930E13BB98F
:1026800080E38BB990FDADC11BB880E28BB91BB85C
:10269000922F9A6A20E12BB980E38BB996FDD3C1C2
:1026A0001BB880E28BB920E12BB980E38BB994FD94
:1026B00095C11BB880E28BB920E12BB980E38BB9BF
:1026C00092FD89C11BB880E28BB920E12BB980E370
:1026D0008BB990FD7DC11BB880E28BB91BB880E13E
:1026E0008BB990E39BB98BB99BB91BB820E22BB98E
:1026F0008BB99BB98BB99BB98BB99BB98BB99BB97A
:102700001BB82BB91BB88BB99BB91BB82BB98BB9AC
:102710009BB91BB82BB98BB99BB91BB82BB98BB91B
:102720009BB91BB82BB91BB88BB99BB98BB99BB99B
:102730008BB99BB91BB82BB98BB99BB91BB82BB9FB
:102740008BB99BB98BB99BB91BB88BB99BB98BB9AA
:102750009BB98BB99BB98BB99BB98BB99BB98BB919
:102760009BB98BB99BB98BB99BB91BB88BB99BB97A
:102770008BB99BB98BB99BB98BB99BB98BB99BB9F9
:102780008BB99BB98BB99BB98BB99BB91BB88BB96A
:102790009BB98BB99BB98BB99BB98BB99BB98BB9D9
:1027A0009BB98BB99BB98BB99BB98BB99BB91BB83A
:1027B0008BB99BB98BB99BB98BB99BB98BB99BB9B9
:1027C0008BB99BB98BB99BB98BB99BB98BB99BB9A9
:1027D0001BB88BB99BB98BB99BB98BB99BB98BB91A
:1027E0009BB98BB99BB98BB99BB98BB99BB98BB989
:1027F0009BB91BB8212F30E08EE591E0289FF001B6
:10280000299FF00D389FF00D1124E45EFE4F20E06B
:1028100030E050E140E390E225C01BB89BB986FD53
:1028200028C01BB89BB985FD28C01BB89BB984FD87
:1028300028C01BB89BB983FD28C01BB89BB982FD7B
:1028400028C01BB89BB981FD28C01BB89BB980FF6D
:1028500028C05BB94BB92F5F3F4F319681E02D35D2
:10286000380741F1808187FFD8CF5BB94BB986FF2C
:10287000D8CF5BB94BB985FFD8CF5BB94BB984FFD3
:10288000D8CF5BB94BB983FFD8CF5BB94BB982FFC7
:10289000D8CF5BB94BB981FFD8CF5BB94BB980FDBD
:1028A000D8CF1BB89BB92F5F3F4F319681E02D35B4
:1028B0003807C1F61BB880E090E030E120E33BB977
:1028C0002BB9019680379105D1F71BB880E090E0D5
:1028D00020E21BB82BB9019633E080309307C9F78B
:1028E0001BB880E18BB990E39BB98BB99BB98BB9CD
:1028F0009BB98BB99BB98BB99BB98BB99BB98BB978
:102900009BB98BB99BB91BB88BB99BB98BB99BB9D8
:102910008BB99BB98BB99BB98BB99BB98BB99BB957
:102920008BB99BB98BB99BB91BB88BB919828981BB
:10293000883059F020E390E12BB989B19BB98981A6
:102940008F5F898389818830B9F720E130E32BB923
:1029500019828981883009F471C090E03BB989B14E
:10296000990F8170982B2BB989818F5F8983898119
:102970008830A1F74B9902C09F3F49F782E08BB99D
:102980001BB80F90CF91DF911F910F91FF90EF90A7
:10299000DF90CF90BF90AF9008956093F80740917B
:1029A000030850E0415D5D4F02C0559547953A954B
:1029B000E2F7809105089091060863E178E003E270
:1029C0000E94440F309114010CCC4BB95BB9A3CDDC
:1029D0002BB98BB983CE2BB98BB977CE2BB98BB9E9
:1029E0006BCE3BB98BB953CE3BB98BB947CE3BB914
:1029F0008BB93BCE2BB98BB91FCE2BB98BB913CE6C
:102A00002BB98BB907CE2BB98BB9EFCD2BB98BB9BD
:102A1000E3CD2BB98BB9D7CD2BB98BB9BECD2BB9A3
:102A20008BB9B2CD2BB98BB9A6CD2BB98BB98ECDC5
:102A30002BB98BB982CD2BB98BB976CD90E09ACFDB
:102A40002BB98BB98FCD2BB98BB92DCE3BB98BB9A7
:102A500003CE2BB98BB9D5CD2BB98BB9ABCD4B9957
:102A600014C060910F016F3F89F4809110018F3F76
:102A700091F4809111018F3F71F4809112018F3F89
:102A800051F4809113018F3F31F4089580E040911B
:102A900016010E94C0108FEF80930F0180931601E2
:102AA00010921E01609110016F3F29F081E040916A
:102AB00017010E94C0108FEF8093100180931701BF
:102AC00010927C02609111016F3F29F082E04091E9
:102AD00018010E94C0108FEF80931101809318019C
:102AE0001092DA03609112016F3F29F083E0409168
:102AF00019010E94C0108FEF809312018093190179
:102B000010923805609113016F3F29F084E04091E5
:102B10001A010E94C0108FEF8093130180931A0155
:102B200010929606109215018CE191E09093120894
:102B30008093110808954B9925C040911501A42F49
:102B4000B0E08FEA90E0A89FF001A99FF00DB89F38
:102B5000F00D1124EE0FFF1FE25EFE4F80818D3AD3
:102B600061F150E08FEA90E0489FF001499FF00D3D
:102B7000589FF00D1124EE0FFF1FE25EFE4F808183
:102B8000863909F008958EE591E0489FF001499F4C
:102B9000F00D589FF00D1124E45EFE4F878190E008
:102BA00085759070880F991F20852575282B209397
:102BB0000C0181E080931B01089580911B01882303
:102BC00071F59091F907FD01E15FFE4F9083AA5ED8
:102BD000BE4F80910B08869586958C939F3081F12E
:102BE0009D3071F1892F8F5F8F708093F90744308A
:102BF00059F14F5F40931501242F30E08EE591E0AD
:102C0000BC01269FC001279F900D369F900D112477
:102C1000845E9E4F9093120880931108A2CF8091FA
:102C20000C018093F90710921B018F3009F099CFA6
:102C30000E94350181E080930C084091150191CFED
:102C4000892F8E5F8F70D1CF0E9435010E942F1582
:102C500081E080930C084091150183CF2F923F9221
:102C60004F925F926F927F928F929F92AF92BF929C
:102C7000CF92DF92EF92FF920F931F93DF93CF9348
:102C80000F92CDB7DEB72B013C011A0169014B9BB6
:102C900014C00F90CF91DF911F910F91FF90EF9093
:102CA000DF90CF90BF90AF909F908F907F906F906C
:102CB0005F904F903F902F90089580E140E052E068
:102CC00060E070E00E943808812C7EEF972E7FEF45
:102CD000A72E7FEFB72E84209520A620B72081E174
:102CE000B501A4010E94380820E130E32BB9198214
:102CF0008981883009F443C190E03BB989B1990FCB
:102D00008170982B2BB989818F5F89838981883065
:102D1000A1F74B9902C09E3F49F70CE111E0F80181
:102D200020E130E32BB919828981883009F41AC176
:102D300090E03BB989B1990F8170982B2BB98981AB
:102D40008F5F898389818830A1F791936CE1E62EAA
:102D500063E0F62EEE15FF0529F780E18BB91982A5
:102D60008981883059F020E390E12BB989B19BB972
:102D700089818F5F898389818830B9F780E18BB938
:102D800019828981883059F020E390E12BB989B10B
:102D90009BB989818F5F898389818830B9F7B201B6
:102DA0007170645E7E4FC114D10479F020E030E090
:102DB000FB01E20FF31FD101A20FB31F8C9180839F
:102DC0002F5F3F4F2C153D0598F382E08BB91BB860
:102DD00088E1B501A4010E94380880E18BB990E335
:102DE0009BB98BB99BB98BB99BB98BB99BB98BB983
:102DF0009BB98BB99BB98BB99BB98BB99BB91BB8E4
:102E00008BB99BB98BB99BB98BB99BB98BB99BB962
:102E10008BB99BB98BB99BB98BB99BB91BB880E2B5
:102E20008BB91BB830E120E390E224C01BB89BB9FA
:102E300086FD28C01BB89BB985FD28C01BB89BB96F
:102E400084FD28C01BB89BB983FD28C01BB89BB963
:102E500082FD28C01BB89BB981FD28C01BB89BB957
:102E600080FF28C03BB92BB91BB80F5F1F4FE0167E
:102E7000F10641F1F801808187FFD8CF3BB92BB92A
:102E800086FFD8CF3BB92BB985FFD8CF3BB92BB93B
:102E900084FFD8CF3BB92BB983FFD8CF3BB92BB92F
:102EA00082FFD8CF3BB92BB981FFD8CF3BB92BB923
:102EB00080FDD8CF1BB89BB91BB80F5F1F4FE01622
:102EC000F106C1F680E18BB990E39BB98BB99BB950
:102ED0008BB99BB98BB99BB98BB99BB98BB99BB992
:102EE0008BB99BB98BB99BB91BB88BB99BB98BB903
:102EF0009BB98BB99BB98BB99BB98BB99BB98BB972
:102F00009BB98BB99BB98BB99BB91BB88BB919828B
:102F10008981883059F020E390E12BB989B19BB9C0
:102F200089818F5F898389818830B9F720E130E317
:102F30002BB919828981883001F190E03BB989B1C0
:102F4000990F8170982B2BB989818F5F8983898133
:102F50008830A1F74B9902C09F3F51F782E08BB9AF
:102F60001BB897CE90E091936CE1E62E63E0F62ECD
:102F7000EE15FF0509F0D6CEF0CE90E0EBCF90E055
:102F8000C8CE6F927F928F929F92AF92BF92CF9254
:102F9000DF92EF92FF920F931F93DF93CF93CDB702
:102FA000DEB7A5970FB6F894DEBF0FBECDBFDC012C
:102FB0004B990CC116E0612E712C6C0E7D1EF30135
:102FC000CE0186961192E817F907E1F78C918E836E
:102FD00011968C9111978F8312968C9112978887F6
:102FE00013968C911397898714968C9114978A87DE
:102FF00015968C9115978B8716968C9116978C87C2
:1030000017968C918D878EE48E8789E48F8783E471
:10301000888B80E090E6A4E0B0E0F301848F958F88
:10302000A68FB78F88249924AA24BB24650110E1B8
:1030300000E380E141E050E060E070E00E94380889
:1030400040910D0850910E0860910F087091100882
:103050004A0D5B1D6C1D7D1D81E10E9438081BB966
:1030600019828981883009F4CBC090E00BB989B10D
:10307000990F8170982B1BB989818F5F8983898112
:103080008830A1F74B9902C09E3F49F71BB91982BE
:103090008981883009F4B8C0FF240BB989B1FF0CCD
:1030A0008170F82A1BB989818F5F89838981883073
:1030B000A1F71BB919828981883049F00BB989B110
:1030C0001BB989818F5F898389818830B9F71BB9E2
:1030D00019828981883049F00BB989B11BB989817E
:1030E0008F5F898389818830B9F740910D085091AD
:1030F0000E0860910F0870911008455F5F4F6F4F89
:103100007F4F4A0D5B1D6C1D7D1D81E10E943808BB
:103110001BB919828981883009F470C090E00BB91D
:1031200089B1990F8170982B1BB989818F5F898331
:1031300089818830A1F74B9902C09E3F49F71BB99E
:1031400019828981883009F45DC090E00BB989B19A
:10315000990F8170982B1BB989818F5F8983898131
:103160008830A1F71BB919828981883049F00BB9E1
:1031700089B11BB989818F5F898389818830B9F7CB
:103180001BB919828981883049F00BB989B11BB903
:1031900089818F5F898389818830B9F7F5EEFF16C1
:1031A00011F0FF2011F49F3089F50894811C911CC7
:1031B00080E290E0A0E0B0E0A80EB91ECA1EDB1EBF
:1031C00090E0891692E0990609F033CF20E030E0D4
:1031D000C901A5960FB6F894DEBF0FBECDBFCF9143
:1031E000DF911F910F91FF90EF90DF90CF90BF90F4
:1031F000AF909F908F907F906F90089590E09BCFBD
:1032000090E040CF90E0AECFFF2453CF60910D0807
:1032100070910E0880910F08909110086A0D7B1D27
:103220008C1D9D1DA30120E230E00E942E166090AF
:103230000D0870900E0880900F08909010088AE199
:1032400090E0A0E0B0E0680E791E8A1E9B1E6A0C1A
:103250007B1C8C1C9D1C82E090E0A0E0B0E08A8387
:103260009B83AC83BD838091030890E0815D9D4F7B
:103270000090140102C0959587950A94E2F7892B76
:1032800009F4A4C0AA24BB2410E100E3A2E0EA2EC2
:10329000F12CEC0EFD1E80E142E050E060E070E0B9
:1032A0000E9438084A815B816C817D81440F551FE3
:1032B000661F771F8091FF0790910008A091010879
:1032C000B0910208480F591F6A1F7B1F81E10E94BD
:1032D00038081BB919828981883009F484C090E0CC
:1032E0000BB989B1990F8170982B1BB989818F5FB8
:1032F000898389818830A1F74B9902C09E3F49F7A5
:103300001BB919828981883009F493C090E00BB908
:1033100089B1990F8170982B1BB989818F5F89833F
:1033200089818830A1F7292F30E01BB91982898162
:10333000883009F47BC090E00BB989B1990F817096
:10334000982B1BB989818F5F898389818830A1F788
:10335000D92ECC241BB919828981883049F00BB948
:1033600089B11BB989818F5F898389818830B9F7D9
:103370001BB919828981883049F00BB989B11BB911
:1033800089818F5F898389818830B9F72C0D3D1D34
:10339000232B59F12A813B814C815D812F5F3F4F67
:1033A0004F4F5F4F2A833B834C835D83809103089B
:1033B00090E0815D9D4F0090140102C09595879526
:1033C0000A94E2F7A816B90608F465CFC401B30160
:1033D00049E051E022E030E00E942E160E94B00A3F
:1033E00021E030E0F5CE90E087CF0894A11CB11C1D
:1033F000C401B301A70122E030E00E942E162A8109
:103400003B814C815D8139014A01660C771C881C27
:10341000991C8091FF0790910008A0910108B0913C
:103420000208680E791E8A1E9B1EB8CFCC24DD24AC
:1034300091CF20E030E079CF2F923F924F925F9270
:103440006F927F928F929F92AF92BF92CF92DF92B4
:10345000EF92FF920F931F93DF93CF93CDB7DEB719
:103460002B970FB6F894DEBF0FBECDBFBCE14B2E3D
:10347000B3E05B2E2C9A8FEF809304088093F807BB
:1034800048865986F2015FEF519383E0E233F807F3
:10349000D9F783E0809332038CEF8093330350930A
:1034A00034033FE3309335032FEC2093360393EF3F
:1034B00090933703809338035093390330933A0342
:1034C00020933B0390933C0380933D0345ED409351
:1034D0003E039AEA90933F0386E9809340033EEDD2
:1034E0003093490390934A032BEE20934B03509360
:1034F0004C0350934D0350934E0350934F035093FE
:10350000500340935103909352038DEA80935303E9
:103510003093AB049093AC042093AD045093AE046D
:103520005093AF045093B0045093B1045093B2043D
:103530005093B3045093B4045093B5045093B6041D
:103540005093B7045093B8045093B9045093BA04FD
:103550005093BB04ECEBF4E01192ACE1AA2EA5E091
:10356000BA2EEA15FB05C1F780E140E052E060E0C9
:1035700070E00E9438081C821B821A82E0E1FE2E55
:1035800070E3E72E60E2962E85B18F2585B9AC8178
:10359000A695AA6AAF83EA81FB81EE0FFF1FFE8327
:1035A000ED8322243324FC81FA6AFA878C819EEF12
:1035B00089278B87822DF101E455FE4F84904B992A
:1035C000AEC020FCCDC08695CA80DB80C80ED11C61
:1035D000309114013601032E02C0769467940A9448
:1035E000E2F7C30162E170E00E944328262F809138
:1035F0000408681709F052C2C30162E170E00E943A
:103600004328FC01EE0FFF1FE45EFA4F4081518119
:103610004250504060E070E004C0440F551F661FE8
:10362000771F3A95D2F78091030890E00197C8225E
:10363000D922C601A0E0B0E0480F591F6A1F7B1FC6
:1036400039E0440F551F661F771F3A95D1F78091D7
:10365000FB079091FC07A091FD07B091FE07480F72
:10366000591F6A1F7B1F81E10E943808FBB819822D
:103670008981883009F42AC290E0EBB889B1990FAA
:103680008170982BFBB889818F5F8983898188300D
:10369000A1F74B9902C09E3F49F7ECE1F1E04B994D
:1036A0003EC0FBB819828981883009F451C090E08E
:1036B000EBB889B1990F8170982BFBB889818F5F26
:1036C000898389818830A1F79193A3E0EC31FA07CF
:1036D00031F70E94AC010E94AC010CE111E042C044
:1036E00090E04B9903C09F3F09F0ACC182E08BB9D9
:1036F0001BB80894211C311C90E12916310409F0F3
:1037000059CFAC81AF5FAC83EA81FB813896FB83F4
:10371000EA83A33209F038CF0E9405012C982B963A
:103720000FB6F894DEBF0FBECDBFCF91DF911F91D2
:103730000F91FF90EF90DF90CF90BF90AF909F9050
:103740008F907F906F905F904F903F902F90089553
:1037500090E09193A3E0EC31FA0709F0A0CFB9CF44
:103760000CE112E0C82CDD248FEFF20185A39EEF5F
:1037700096A3AF81A7A3BA85B0A7C60196958795F2
:103780008A6A81A7882D8A6A82A79B859825892FB6
:1037900086958A6A83A79A6A94A7980140E050E0C8
:1037A00060E015C090E0872B892B6827E62FF0E0BA
:1037B000E459FF4FE491DA01AC5ABC4FEC934F5FF0
:1037C0005F4F2F5F3F4F682F4635510521F1D901DB
:1037D000EC91F0E0E370F070E054FE4F74912A5ADF
:1037E0003F4FD901EC9126553040F0E0E370F07086
:1037F000EC53FE4F849144355105A0F624553F4FBC
:10380000D901EC912C5A3040F0E0E370F070E853AD
:10381000FE4F9491C8CF982F20E030E0F801E20FDE
:10382000F31F8081869586959827E92FF0E0E4596B
:10383000FF4FE491D901A655BC4FEC932F5F3F4F4A
:10384000982FB1E020303B0749F7E82FF0E0E4592A
:10385000FF4FE491E093AA04ED81FE81CE0EDF1EBE
:10386000309114013601032E02C0769467940A94B5
:10387000E2F7C30163E270E00E944328262F8091A3
:10388000F807681709F0F2C0F2E0FBB91BB8C301F2
:1038900063E270E00E944328FC01EE0FFF1FED5E23
:1038A000F74F408151814250504060E070E004C0C9
:1038B000440F551F661F771F3A95D2F78091030872
:1038C00090E00197C822D922C601A0E0B0E0480FDD
:1038D000591F6A1F7B1F09E0440F551F661F771F82
:1038E0000A95D1F78091FB079091FC07A091FD0705
:1038F000B091FE07480F591F6A1F7B1F88E10E9485
:103900003808FBB8EBB8FBB8EBB8FBB8EBB8FBB8C2
:10391000EBB8FBB8EBB8FBB8EBB8FBB8EBB8FBB84F
:10392000EBB81BB8FBB8EBB8FBB8EBB8FBB8EBB81F
:10393000FBB8EBB8FBB8EBB8FBB8EBB8FBB8EBB82F
:103940001BB89BB81BB828853985C901FC0122C06A
:103950001BB89BB886FD27C01BB89BB885FD27C048
:103960001BB89BB884FD27C01BB89BB883FD27C03C
:103970001BB89BB882FD27C01BB89BB881FD27C030
:103980001BB89BB880FF27C0FBB8EBB83196AE16CA
:10399000BF0639F14B99C3CE808187FFD9CFFBB8E1
:1039A000EBB886FFD9CFFBB8EBB885FFD9CFFBB812
:1039B000EBB884FFD9CFFBB8EBB883FFD9CFFBB806
:1039C000EBB882FFD9CFFBB8EBB881FFD9CFFBB8FA
:1039D000EBB880FDD9CF1BB89BB83196AE16BF06A9
:1039E000C9F61BB8FBB8EBB8FBB8EBB8FBB8EBB843
:1039F000FBB8EBB8FBB8EBB8FBB8EBB8FBB8EBB86F
:103A0000FBB8EBB81BB8FBB8EBB8FBB8EBB8FBB82E
:103A1000EBB8FBB8EBB8FBB8EBB8FBB8EBB8FBB84E
:103A2000EBB8FBB8EBB81BB8FBB8198289818830BA
:103A300049F0EBB889B1FBB889818F5F89838981AF
:103A40008830B9F7FBB819828981883009F448CEEB
:103A500090E0EBB889B1990F8170982BFBB8898100
:103A60008F5F898389818830A1F73BCE6093F80707
:103A70004091030850E0415D5D4F02C05595479568
:103A80003A95E2F7809105089091060863E178E0A5
:103A900003E20E94440F30911401F6CE60930408B3
:103AA0004091030850E0495E5E4F02C0559547952E
:103AB0003A95E2F78091F2079091F3076CE175E097
:103AC00002E10E94440F3091140196CD90E0E1CDC7
:103AD000CF92DF92EF92FF920F931F93DF93CF93DA
:103AE000CDB7DEB72E970FB6F894DEBF0FBECDBFB1
:103AF00010925B0880E385B982E08BB900E010E0AA
:103B0000B2E3EB2EA2E1FA2EEBB881E090E00E9446
:103B10008627FBB881E090E00E9486270F5F1F4F49
:103B2000083C110589F71BB880E040E050E060E0F8
:103B300070E00E94380300E1F0E3FF2E4B9992C53C
:103B40000BB981E090E00E94862719828981883034
:103B5000A9F310E0FBB881E090E00E94862789B1CC
:103B6000110F8170182B0BB981E090E00E9486271D
:103B700089818F5F89838981883061F71130F1F6FF
:103B800082E08BB900E1E0E3FE2E70E2E72E62E016
:103B9000D62E4B9967C51BB80BB981E090E00E9407
:103BA0008627FBB881E090E00E9486270BB981E070
:103BB00090E00E948627FBB881E090E00E94862773
:103BC0000BB981E090E00E948627FBB881E090E08D
:103BD0000E9486270BB981E090E00E948627FBB8FF
:103BE00081E090E00E9486270BB981E090E00E947E
:103BF0008627FBB881E090E00E9486270BB981E020
:103C000090E00E948627FBB881E090E00E94862722
:103C10000BB981E090E00E948627FBB881E090E03C
:103C20000E9486270BB981E090E00E948627FBB8AE
:103C300081E090E00E9486271BB81BB881E090E0ED
:103C40000E948627EBB881E090E00E9486270BB99E
:103C500081E090E00E948627FBB881E090E00E941E
:103C600086270BB981E090E00E948627FBB881E0AF
:103C700090E00E9486270BB981E090E00E948627A1
:103C8000FBB881E090E00E9486271BB881E090E0BD
:103C90000E948627EBB881E090E00E9486270BB94E
:103CA00081E090E00E948627FBB881E090E00E94CE
:103CB00086270BB981E090E00E948627FBB881E05F
:103CC00090E00E9486270BB981E090E00E94862751
:103CD000FBB881E090E00E9486271BB81BB881E00A
:103CE00090E00E948627EBB881E090E00E94862752
:103CF0001BB881E090E00E948627EBB881E090E05D
:103D00000E9486271BB881E090E00E948627EBB8CE
:103D100081E090E00E9486271BB881E090E00E943D
:103D20008627EBB881E090E00E9486271BB881E0EF
:103D300090E00E948627EBB881E090E00E94862701
:103D40001BB881E090E00E948627EBB881E090E00C
:103D50000E9486271BB881E090E00E948627EBB87E
:103D600081E090E00E9486271BB881E090E00E94ED
:103D70008627EBB881E090E00E9486271BB81BB82D
:103D800081E090E00E948627EBB881E090E00E94FD
:103D900086271BB881E090E00E948627EBB881E07F
:103DA00090E00E9486271BB881E090E00E94862761
:103DB000EBB881E090E00E9486271BB881E090E09C
:103DC0000E948627EBB881E090E00E9486271BB80E
:103DD00081E090E00E948627EBB881E090E00E94AD
:103DE00086271BB881E090E00E948627EBB881E02F
:103DF00090E00E9486271BB881E090E00E94862711
:103E0000EBB881E090E00E9486271BB881E090E04B
:103E10000E948627EBB881E090E00E9486271BB8BD
:103E20001BB881E090E00E948627EBB881E090E02B
:103E30000E9486271BB881E090E00E948627EBB89D
:103E400081E090E00E9486271BB881E090E00E940C
:103E50008627EBB881E090E00E9486271BB881E0BE
:103E600090E00E948627EBB881E090E00E948627D0
:103E70001BB881E090E00E948627EBB881E090E0DB
:103E80000E9486271BB881E090E00E948627EBB84D
:103E900081E090E00E9486271BB881E090E00E94BC
:103EA0008627EBB881E090E00E9486271BB881E06E
:103EB00090E00E948627EBB881E090E00E94862780
:103EC0001BB81BB881E090E00E948627EBB881E028
:103ED00090E00E9486271BB881E090E00E94862730
:103EE000EBB881E090E00E9486271BB881E090E06B
:103EF0000E948627EBB881E090E00E9486271BB8DD
:103F000081E090E00E948627EBB881E090E00E947B
:103F100086271BB881E090E00E948627EBB881E0FD
:103F200090E00E9486271BB881E090E00E948627DF
:103F3000EBB881E090E00E9486271BB881E090E01A
:103F40000E948627EBB881E090E00E9486271BB88C
:103F500081E090E00E948627EBB881E090E00E942B
:103F600086271BB80BB981E090E00E948627FBB83A
:103F700081E090E00E9486271BB881E090E00E94DB
:103F80008627EBB881E090E00E9486271BB881E08D
:103F900090E00E948627EBB881E090E00E9486279F
:103FA0000BB981E090E00E948627FBB881E090E0A9
:103FB0000E9486271BB881E090E00E948627EBB81C
:103FC00081E090E00E9486270BB981E090E00E949A
:103FD0008627FBB881E090E00E9486271BB881E02D
:103FE00090E00E948627EBB881E090E00E9486274F
:103FF0000BB981E090E00E948627FBB881E090E059
:104000000E9486271BB80BB981E090E00E948627AA
:10401000FBB881E090E00E9486270BB981E090E038
:104020000E948627FBB881E090E00E9486270BB9AA
:1040300081E090E00E948627FBB881E090E00E943A
:1040400086270BB981E090E00E948627FBB881E0CB
:1040500090E00E9486270BB981E090E00E948627BD
:10406000FBB881E090E00E9486270BB981E090E0E8
:104070000E948627FBB881E090E00E9486270BB95A
:1040800081E090E00E948627FBB881E090E00E94EA
:1040900086270BB981E090E00E948627FBB881E07B
:1040A00090E00E9486271BB80BB981E090E00E9447
:1040B000862719828981883009F4E3C210E0FBB8B1
:1040C00081E090E00E94862789B1110F8170182B42
:1040D0000BB981E090E00E94862789818F5F8983F8
:1040E0008981883061F7812F4B99BCC217FDDCCFE5
:1040F0008F3F09F4B7C28E7F09F04BCDDBB81BB8F8
:104100000BB981E090E00E948627FBB881E090E047
:104110000E9486270BB981E090E00E948627FBB8B9
:1041200081E090E00E9486270BB981E090E00E9438
:104130008627FBB881E090E00E9486270BB981E0DA
:1041400090E00E948627FBB881E090E00E948627DD
:104150000BB981E090E00E948627FBB881E090E0F7
:104160000E9486270BB981E090E00E948627FBB869
:1041700081E090E00E9486270BB981E090E00E94E8
:104180008627FBB881E090E00E9486270BB981E08A
:1041900090E00E948627FBB881E090E00E9486278D
:1041A0001BB81BB881E090E00E948627EBB881E045
:1041B00090E00E9486270BB981E090E00E9486275C
:1041C000FBB881E090E00E9486270BB981E090E087
:1041D0000E948627FBB881E090E00E9486271BB8EA
:1041E00081E090E00E948627EBB881E090E00E9499
:1041F00086270BB981E090E00E948627FBB881E01A
:1042000090E00E9486271BB881E090E00E948627FC
:10421000EBB881E090E00E9486271BB881E090E037
:104220000E948627EBB881E090E00E9486270BB9B8
:1042300081E090E00E948627FBB881E090E00E9438
:1042400086271BB81BB881E090E00E948627EBB858
:1042500081E090E00E9486271BB881E090E00E94F8
:104260008627EBB881E090E00E9486271BB881E0AA
:1042700090E00E948627EBB881E090E00E948627BC
:104280001BB881E090E00E948627EBB881E090E0C7
:104290000E9486271BB881E090E00E948627EBB839
:1042A00081E090E00E9486271BB881E090E00E94A8
:1042B0008627EBB881E090E00E9486271BB881E05A
:1042C00090E00E948627EBB881E090E00E9486276C
:1042D0001BB881E090E00E948627EBB881E090E077
:1042E0000E9486271BB81BB881E090E00E948627B9
:1042F000EBB881E090E00E9486271BB881E090E057
:104300000E948627EBB881E090E00E9486271BB8C8
:1043100081E090E00E948627EBB881E090E00E9467
:1043200086271BB881E090E00E948627EBB881E0E9
:1043300090E00E9486271BB881E090E00E948627CB
:10434000EBB881E090E00E9486271BB881E090E006
:104350000E948627EBB881E090E00E9486271BB878
:1043600081E090E00E948627EBB881E090E00E9417
:1043700086271BB881E090E00E948627EBB881E099
:1043800090E00E9486271BB81BB881E090E00E9455
:104390008627EBB881E090E00E9486271BB881E079
:1043A00090E00E948627EBB881E090E00E9486278B
:1043B0001BB881E090E00E948627EBB881E090E096
:1043C0000E9486271BB881E090E00E948627EBB808
:1043D00081E090E00E9486271BB881E090E00E9477
:1043E0008627EBB881E090E00E9486271BB881E029
:1043F00090E00E948627EBB881E090E00E9486273B
:104400001BB881E090E00E948627EBB881E090E045
:104410000E9486271BB881E090E00E948627EBB8B7
:1044200081E090E00E9486271BB81BB881E090E0F5
:104430000E948627EBB881E090E00E9486271BB897
:1044400081E090E00E948627EBB881E090E00E9436
:1044500086271BB881E090E00E948627EBB881E0B8
:1044600090E00E9486271BB881E090E00E9486279A
:10447000EBB881E090E00E9486271BB881E090E0D5
:104480000E948627EBB881E090E00E9486271BB847
:1044900081E090E00E948627EBB881E090E00E94E6
:1044A00086271BB881E090E00E948627EBB881E068
:1044B00090E00E9486271BB881E090E00E9486274A
:1044C000EBB881E090E00E9486271BB80BB981E031
:1044D00090E00E948627FBB881E090E00E9486274A
:1044E0001BB881E090E00E948627EBB881E090E065
:1044F0000E9486271BB881E090E00E948627EBB8D7
:1045000081E090E00E9486270BB981E090E00E9454
:104510008627FBB881E090E00E9486271BB881E0E7
:1045200090E00E948627EBB881E090E00E94862709
:104530000BB981E090E00E948627FBB881E090E013
:104540000E9486271BB881E090E00E948627EBB886
:1045500081E090E00E9486270BB981E090E00E9404
:104560008627FBB881E090E00E9486271BB80BB934
:1045700081E090E00E948627FBB881E090E00E94F5
:1045800086270BB981E090E00E948627FBB881E086
:1045900090E00E9486270BB981E090E00E94862778
:1045A000FBB881E090E00E9486270BB981E090E0A3
:1045B0000E948627FBB881E090E00E9486270BB915
:1045C00081E090E00E948627FBB881E090E00E94A5
:1045D00086270BB981E090E00E948627FBB881E036
:1045E00090E00E9486270BB981E090E00E94862728
:1045F000FBB881E090E00E9486270BB981E090E053
:104600000E948627FBB881E090E00E9486271BB8B5
:104610000BB981E090E00E94862719828981883059
:1046200099F110E0FBB881E090E00E94862789B103
:10463000110F8170182B0BB981E090E00E94862742
:1046400089818F5F89838981883061F7812F4B99B8
:1046500009C017FDDDCF8823D1F08F3F19F0DBB8FB
:104660004B9B99CA2E960FB6F894DEBF0FBECDBFF6
:10467000CF91DF911F910F91FF90EF90DF90CF903E
:10468000089510E080E030CD10E080E0E0CF80E1E0
:1046900045E050E060E070E00E94380866E370E0BA
:1046A00080E090E00E94880AFE01329657E0C52E15
:1046B000D12CCC0EDD1E20E130E32BB9198289818B
:1046C000883009F47FC190E03BB989B1990F8170BE
:1046D000982B2BB989818F5F898389818830A1F7D5
:1046E0009193EC15FD0549F70E94AC010E94AC01C5
:1046F0008A81863421F48B81813409F465C180E19B
:1047000044E050E060E070E00E94380866EC71E040
:1047100080E090E00E94880A0E94AC0190E0A0E056
:10472000B0E08093070890930808A0930908B0931D
:104730000A080E94AC0190E0A0E0B0E0BA2FA92FD7
:10474000982F882720910708309108084091090880
:1047500050910A08280F391F4A1F5B1F2093070832
:10476000309308084093090850930A080E94AC014E
:1047700090E0A0E0B0E0DC019927882720910708AD
:10478000309108084091090850910A08280F391FF4
:104790004A1F5B1F209307083093080840930908BD
:1047A00050930A080E94AC01809107089091080874
:1047B000A0910908B0910A0829E0880F991FAA1F43
:1047C000BB1F2A95D1F78093070890930808A09300
:1047D0000908B0930A080E94AC010E94AC014B99F1
:1047E00041CF80E143E050E060E070E00E94380893
:1047F00060910708709108088091090890910A0853
:10480000635F7F4F8F4F9F4F0E94880A0E94AC01C9
:1048100089838981809303081092140189818130F2
:1048200051F090E09F5F89818695898389818130ED
:10483000C9F7909314010E94AC01082F10E00E9468
:10484000AC01F82E0E94AC010E94AC019F2D80E0CB
:10485000800F911FA0E0B0E009E0880F991FAA1F08
:10486000BB1F0A95D1F720910708309108084091A5
:10487000090850910A08820F931FA41FB51F809347
:10488000FF0790930008A0930108B09302084B998A
:10489000E9CE80E142E050E060E070E00E9438083C
:1048A00060910708709108088091090890910A08A2
:1048B0006A5E7F4F8F4F9F4F0E94880A0E94AC0113
:1048C0008093F6071092F7070E94AC01382F20E082
:1048D0008091F6079091F707820F931F9093F70747
:1048E0008093F6070E94AC010E94AC018091F6070C
:1048F0009091F707A0E0B0E01AE0880F991FAA1F77
:10490000BB1F1A95D1F72091FF0730910008409105
:10491000010850910208820F931FA41FB51F8093B6
:104920000D0890930E08A0930F08B09310088050C4
:10493000904CAF4FBF4F8093FB079093FC07A09321
:10494000FD07B093FE074B998DCE80E091E069E5BD
:1049500078E040E050E00E943C0C9C0190930608F7
:10496000809305082050324009F443C04B997ACE19
:104970008FEF8093F807809304081092F507109248
:10498000F40710925A081092FA0711E010930C08DD
:1049900010920B081092F9071092150110921B014A
:1049A0008CE191E0909312088093110880E140E03F
:1049B00052E060E070E00E9438080E940501109308
:1049C0005B0850CE90E08CCE8C81843509F097CE78
:1049D0008D81813309F093CE8E81863309F08FCE9D
:1049E00010920708109208081092090810920A08FD
:1049F000F6CE84E091E060E070E0A6010E943C0CFD
:104A00009C019093F3078093F2072050324009F401
:104A100029CEC6010E94C117892B09F423CE80E05C
:104A200091E069E578E040E050E00E943C0C9C0198
:104A300090930608809305082050324009F412CE66
:104A40000E941C1A93CF4B9B0CC080E090E0A5E025
:104A5000B0E004C00197A109B10999F04B99FACFD0
:104A6000089580915B088823D9F780E090E0A5E065
:104A7000B0E004C00197A109B10971F04B9BFACFD6
:104A8000089580916E008E7F80936E00E89810925A
:104A90005B0810920C080895F8940E94681D80919C
:104AA0005B08882331F080916E00816080936E00F6
:104AB000E89A789408955F926F927F928F929F9276
:104AC000AF92BF92CF92DF92EF92FF920F931F931C
:104AD000DF93CF930F92CDB7DEB780E184B98AE040
:104AE00087B982E38AB980E385B982E088B91BB8C7
:104AF0001092F90710925B0810925A081092590808
:104B00001092F5071092F4071092FA0791E0909333
:104B10000C0810920B081092150110921B015CE119
:104B2000652E51E0752E709212086092110817BC24
:104B300014BC95BD85BF8093690040E3A42E30E18D
:104B4000B32E88248A942BE8522E90E2992E4B9B08
:104B500018C08FEF9FEFA4E0B0E00CC00197A1094F
:104B6000B1098F3F2FEF92072FEFA2072FEFB20768
:104B700009F41CC14B99F2CF309B1BC095B84B99DF
:104B8000E8CF80915B088823B9F78FEF9FEFA4E00F
:104B9000B0E00CC00197A109B1098F3F2FEF920738
:104BA0002FEFA2072FEFB20709F411C14B9BF2CFF1
:104BB000E3CFA5B893B19F7090930E0180910D0142
:104BC000981771F090930D01983009F4CAC0943091
:104BD00009F4F7C0923009F4F8C0913009F48EC19D
:104BE00080915B08882309F4B2CF80910C08882358
:104BF00009F4ADCFF8943091F9073F5F3F703093DF
:104C0000F90710910B0816951695E12EFF24E294F2
:104C1000F29480EFF822FE24E822FE24E30EF11C39
:104C2000E091140167010E2E02C0D694C7940A9435
:104C3000E2F7C60163E270E00E944328262F8091CC
:104C4000F8076817B9F06093F8074091030850E03F
:104C5000415D5D4F02C055954795EA95E2F7809119
:104C600005089091060863E178E003E20E94440F92
:104C70003091F907C60163E270E00E944328FC010D
:104C8000EE0FFF1FED5EF74FC080D18060910F01E6
:104C9000631709F4ABC080911001381709F40AC1F9
:104CA00080911101381709F40FC180911201381752
:104CB00009F414C180911301381709F419C18EEF5A
:104CC0009FEFC80ED91EA60160E070E000901401AD
:104CD00004C0440F551F661F771F0A94D2F78091B6
:104CE000030890E00197E822F922C701A0E0B0E0B4
:104CF000480F591F6A1F7B1F19E0440F551F661F7D
:104D0000771F1A95D1F78091FB079091FC07A0912E
:104D1000FD07B091FE07480F591F6A1F7B1F81E1F5
:104D20000E943808BBB819828981883009F44BC0C9
:104D300090E0ABB889B1990F8170982BBBB889818D
:104D40008F5F898389818830A1F74B9902C09E3F8C
:104D500049F71092F5071092F40710920C08789416
:104D6000F6CE82E030910B08830F8770E82FE6952E
:104D7000F0E0E859FF4F249190930D0180FF0CC0A3
:104D8000822F8F7083FD886F830F80930B08853C83
:104D900038F010920B0824CF822F82958F70F2CFBB
:104DA0008C3808F41DCF50920B081ACF80916E00FA
:104DB0008E7F80936E00E89810925B0810920C082A
:104DC000DBCE84E0CFCF90E0C0CF86E0CBCFF894AD
:104DD0000E94681D80915B08882331F080916E00ED
:104DE000816080936E00E89A7894C6CE8091160117
:104DF000811709F050CF4B9962CF6F3F09F080C007
:104E0000809110018F3F69F4809111018F3F49F427
:104E1000809112018F3F29F4809113018F3F09F493
:104E20004ECF80920F018092160110921E01609168
:104E300010016F3F29F081E0409117010E94C010DE
:104E4000809210018092170110927C0260911101F2
:104E50006F3F29F082E0409118010E94C0108092BB
:104E60001101809218011092DA03609112016F3FD4
:104E700029F083E0409119010E94C0108092120134
:104E80008092190110923805609113016F3F29F04B
:104E900084E040911A010E94C01080921301809218
:104EA0001A011092960610921501709212086092E3
:104EB000110805CF80911701811709F49CCF8091CB
:104EC0001101381709F0F1CE80911801811709F40A
:104ED00092CF80911201381709F0ECCE8091190120
:104EE000811709F488CF80911301381709F0E7CEB4
:104EF00080911A01811709F0E2CE7DCF80E032CF98
:104F000080E0409116010E94C0108BCF28E1000084
:104F10002A95E9F70197D1F70895000000000000F5
:104F2000000000000000000000000895AF93AFB73C
:104F3000AF93BF932F93A0915A0820915908A22BA9
:104F4000A8B9AAEAA6BD20E0E8DFA0915908A8B94F
:104F5000B0910C08BB2341F020935A082F91BF91C8
:104F6000AF91AFBFAF911895A0E3ABB9A9B1A17054
:104F7000AA0F2A2FA0E1ABB9A091F407B091F507D1
:104F80001196A093F407B093F507A03989F4BC30CB
:104F900079F4A1E0A0930C08CF93C0E7A8E0B0E3B8
:104FA000BBB9B0E1BBB9AA95D1F7CA95B9F7CF9112
:104FB00020935A082F91BF91AF91AFBFAF91189531
:104FC0002F932FB72F9330995AC03F933091FA0700
:104FD00026B124702327E1F326B124702093FA0729
:104FE00028E02A95F1F700004F935F936F937F932A
:104FF0008F93EF93FF9360E0E0911108F091120816
:105000003DE541E00DC05091FA0776B17470752707
:10501000E1F376B174707093FA077EE07A95F1F758
:1050200027E081E079B17470D1F400007EE17A95D7
:10503000F1F776B174705091FA077093FA077527FB
:1050400076957695880F872B2A9561F7853D09F42B
:1050500061E06030C1F2819331504040A1F69F93EE
:10506000AF93BF930E949B15BF91AF919F91FF910A
:10507000EF918F917F916F915F914F913F912F9120
:105080002FBF2F911895AA1BBB1B51E107C0AA1F68
:10509000BB1FA617B70710F0A61BB70B881F991FD9
:1050A0005A95A9F780959095BC01CD01089597FB7D
:1050B000092E07260AD077FD04D0E5DF06D00020B0
:1050C0001AF4709561957F4F0895F6F79095819544
:0850D0009F4F0895F894FFCFF3
:0C50D8004E49430044534B00FEFFFF0014
:00000001FF
